:0A0000000C9475000C9400000C94A1
:10000A0000000C9400000C9400000C9400000C9466
:10001A0000000C9400000C9400000C9400000C9456
:10002A0000000C9400000C9400000C9400000C9446
:10003A0000000C9400000C9400000C9400000C9436
:10004A0000000C9400000C9400000C9400000C9426
:10005A0000000C9400000C9400000C9400000C9416
:10006A004C030C9400000C9400000C9400000C94B7
:10007A0000001027E80364000A00010000100001D4
:10008A0010000100496E73657274205265736973BA
:10009A00746F72004F484D2D4D45544552005265BC
:1000AA00733A253364002E25303364004D006F689F
:1000BA006D006B005265733A2534640001002D4EC1
:1000CA00414E00494E460000070080C0010003026D
:1000DA00C60001000202D20002001302D40000008E
:1000EA00F894EE27EFBBF1E0F5BFE5BF8DE0A2E0A3
:1000FA00BB27ED938A95E9F780E094E0A0E0B1E0B0
:10010A00ED930197E9F7E6EDF0E085919591009777
:10011A0061F0A591B59105901590BF01F001059088
:10012A000D920197E1F7FB01F0CFE0E0EEBBEFEFB4
:10013A00EDBFE4E0EEBFC0E0D2E00C94CB00E0916A
:10014A007C00E064B8D4E768E0937A00089545D566
:10015A005A2FE0917C00E07FAE2FE52FEF70EA2B5B
:10016A00AAD4E064E0937A00E0917A00E071E1F3C6
:10017A00209178003327E0917900FE2FE0E08F018B
:10018A00020F131FF80130D526960895A4E6B0E0B1
:10019A00EDD17894E7E2EA93A0E152D4D0DF08984F
:1001AA00209A2ED42297A0E0D2DFE883F983A9818E
:1001BA00AA2322F0A881B98113970CF004C080D435
:1001CA00EEE8F0E04BC0E881F9817ED4A0E0B0EA25
:1001DA008FE090E060D5E85EF3403E2E4F2E79D452
:1001EA00A134E2E4BE07EFE08E07E0E09E07B4F038
:1001FA0077D482D46ED485D489D490D46AD481D465
:10020A005DD5DF01CB01E8EEF3E060E070E07ED47B
:10021A00E8E0EA93E6EBF0E088D41DC0E8EEF3E00C
:10022A00E315F4057CF45CD467D488D40BD58BD45D
:10023A0075D484D435D587D4E8E0EA93ECEBF0E0C2
:10024A0074D409C04DD4EEEBF0E0FA93EA93E32DAF
:10025A00F42D79D4E5E0EA93E8EBF0E0FA93EA9337
:10026A0080E03DD12496A4EFB1E058D522969ACFEA
:10027A00FFCFBA93AA932697B0D410E0AC85BD8578
:10028A00E0E0F0E0ED93FC93EA89FB893196EA8B92
:10029A00FB8B3197E4912E2FE03009F40BC1E12F4B
:1002AA00E03031F4253211F411E001C054D401C117
:1002BA00E130A1F4253211F44ED4FAC012E040E044
:1002CA0000E02D3211F401E0F4C02B3211F44BE2BC
:1002DA00F0C0203211F440E2ECC002C0E23039F43E
:1002EA0050E013E0203311F40068E3C003C0E330A8
:1002FA0009F0DFC0203310F02A3308F007C0AAE063
:10030A005A9F502DE22FE0535E0FD3C0E22FE336FF
:10031A0039F428D4E889F989A481AA9329D4C8C0D0
:10032A00E33729F41FD42AD408D11E2F07C0E03797
:10033A0049F418D423D40DD11E2F086002600F7718
:10034A0030E03AC0E43611F0E93611F4046002C034
:10035A00E53731F4ECE7F0E0EE83FF8315E00CC0FB
:10036A00E83511F4086003C0E83709F0A1C0E6E8EF
:10037A00F0E0EE83FF8314E002FF15C0F3D3A889EF
:10038A00B9891496ED91FD91EA87FB87AB85AA237B
:10039A0022F431D4EA87FB874DE2403011F01F5F27
:1003AA0001C00B7F09C0DED3A889B9891496ED91E3
:1003BA00FC911197EA87FB8700FD10C0151770F4AE
:1003CA0007FF08C002FF04C00B7F242F115001C091
:1003DA0020E301C020E2BFD35150F0CF312F01FFFB
:1003EA0016C0303099F003FF06C0EE81FF812591D7
:1003FA00EE83FF8305C0AE81BF812D91AE83BF839B
:10040A00AAD3503009F051503150EBCF48C020E305
:10041A00EE81FF817AD4E887F987EE81FF813296EF
:10042A00EE83FF83E885F985AA85BB85AE17BF07EA
:10043A0050F02F5FA885B985EA85FB85EA1BFB0B7F
:10044A00EA87FB87EFCF2A3328F003FF02C0295F30
:10045A0001C0295D04FD19C0213320F4A885B9859E
:10046A00119709F409C0531710F000FF01C011C019
:10047A0020E207FF0AC020E3006102FF06C00B7FEB
:10048A004A9376D3503009F0515065D3503009F071
:10049A0051503150A885B985129708F0B8CF00FF9E
:1004AA0007C0503029F05150E0E2EA9361D3F9CF06
:1004BA0010E0EACEAC85BD85ED91FD9195D36496A9
:1004CA0008958DD38D013C81A32FA4D2D801ED913B
:1004DA00FD913196FE93EE9389D325960895FF9266
:1004EA00F82E26977CD3FE010024EF0DF01D3485EB
:1004FA002585DE0116960024AF0DB01D8D01E0E0C2
:10050A00EE83EF83E887E9872A93A32F6DD2DE0172
:10051A001A960024AF0DB01DED91FD91FA93EA935E
:10052A001A930A93E6E6F2E0FA93EA93DE011A9640
:10053A00A0DE5CD32A96FF900895BA93AA93A99154
:10054A00B991EE27FF276D91662311F03196FBCF03
:10055A000895BA93AA93AA27BB27E991F99105901E
:10056A00002011F01196FBCFFD01089538D39D01AB
:10057A00F19AE7E0E0930202E0E0E0930F02E093F1
:10058A001002E0931102E093120241984098E0931E
:10059A00BC00E091B900EC7FE093B900F901A0E159
:1005AA00B7E23DD31E2F183008F018501093B80048
:1005BA00E091BC00E078E564E093BC0017D3249690
:1005CA00089524970AD31A2F2A853B850C854D85D1
:1005DA005E85F19B58C0EF85EE0FE09307024093CA
:1005EA00080250930902E0E0E093000200930A0235
:1005FA0020930B0230930C02E093010210930D0238
:10060A00E6E0E09302027894003069F0042E052AAD
:10061A00D1F1103021F000240216030609F001C0BE
:10062A0032C0F09A0BC0103031F1022E032A59F170
:10063A00E0910702E160E0930702F098F198E091F7
:10064A00BC00EF70E06AE093BC00E0E2F1EA67E028
:10065A0070E09ED2F1990FC0EE81FF81688579859D
:10066A0031976040704094D229F4E5E0E0930202A9
:10067A00F19A09C0EFCFA0910202E0E0EA17E1E0A7
:10068A0009F0EE2701C0E0E0AFD2609608950A9221
:10069A001A92FA926A937A938A939A93AA93BA933A
:1006AA00EA93FA93EFB7EA935A934A933A932A93BF
:1006BA001A930A93109101020091000230910A02E2
:1006CA0020910202E12FA0910B02B0910C02F0E0FE
:1006DA00EA0FFB1FAF01E091B900E87FE83011F49F
:1006EA0020E002C0E03119F4E091070210C0E831BD
:1006FA0011F0E83241F5031798F4E02F0F5FA0914B
:10070A000802B0910902F0E0AE0FBF1FEC91E0932E
:10071A00BB00E091BC00EF70E068E093BC0012C03F
:10072A00E0910D021E1768F4E0910702E160E09380
:10073A000702F098E091BC00EF70E06AE093BC0019
:10074A000DC138C00BC1E03531F4E091BB00DA01CC
:10075A00EC931F5F02C0E03489F4E0910D02E1508E
:10076A001E1728F0E091BC00EF70E06804C0E09129
:10077A00BC00EF70E06CE093BC00F0C0E83531F4E7
:10078A00E091BB00DA01EC931F5F02C0E03209F48A
:10079A0002C0E03309F402C0E83469F4203051F4AD
:1007AA00F09B03C0031728F005C0E0910D021E1745
:1007BA0008F424E0CCC0E83331F422E0E091BC0034
:1007CA00EF70E068C8C0E83611F0E83711F422E0AB
:1007DA0005C0E03611F0E037A1F420E010E0F0980F
:1007EA00E0910E02E03031F421E0E091BC00EF70BC
:1007FA00E06804C0E091BC00EF70E06CE093BC00DC
:10080A00ADC0E03811F0E03939F5F09B02C021E0C3
:10081A009EC0E091BB00DA01EC931F5FE0910E02EB
:10082A001E17C0F4E0910F02F0911002309711F4F4
:10083A0026E08DC0A0E0E0910F02F0911002099528
:10084A00E03039F0E091BC00EF70E06CE093BC005E
:10085A0085C001C0F09A02C0E83809F402C0E8393C
:10086A0039F4E091BC00EF70E068E093BC0076C018
:10087A00E03AB1F4E091BC00EF70E06CE093BC00A8
:10088A00F19AE0910F02F0911002309739F0A1E04D
:10089A00E0910F02F0911002099501C026E05EC0B6
:1008AA00E03B11F422E002C0E83AB1F4E09111020F
:1008BA00F0911202309759F0A0E0E0911102F09104
:1008CA00120209953E2FE03011F020E002C026E026
:1008DA003EC000E0F09802C0E83BF9F4F09B02C089
:1008EA0021E035C0E02F0F5FA0910802B091090204
:1008FA00F0E0AE0FBF1FEC91E093BB00031728F4A2
:10090A00E091BC00EF70E06C05C0F09AE091BC0089
:10091A00EF70E068E093BC0021C0E03C11F0E83CD5
:10092A0099F4E091BC00EF70E06CE093BC00E091B8
:10093A001102F0911202309731F0A1E0E091110218
:10094A00F0911202099509C0E03041F423E0E091E8
:10095A00BC00EF70E06DE093BC00F19A10930102C5
:10096A00009300022093020230930A02099119911E
:10097A002991399149915991E991EFBFF991E991F9
:10098A00B991A9919991899179916991F99019905F
:10099A000990189502D1A091180206D14FC0FDD036
:1009AA00E095A0911802EA2304D148C01A931A2F9D
:1009BA00E0911702EA93E0911802EF70AE2FE12F4F
:1009CA00E07FF2D0A4E0E6DFA4E037C0AA93A881D2
:1009DA00EDDFE881E295E883A881E8DF8AEF90E01D
:1009EA000197F1F721960895E8D0E12FF0E0ED5E46
:1009FA00FD4FE081E00FAE2FE9DF602E512E46C099
:100A0A00A2E0E0D0ACE0E2DFA1E0DCD0E0E05E2EE4
:100A1A006E2E08951A931A2F1A3011F0681438F0AE
:100A2A00E0E0EA935394A52DDFDF1A3039F063949E
:100A3A00A1E0B0DFA12FCADFA1E0B1DF19910895CB
:100A4A00BCD000931702E0911702EA93E8E0B1D014
:100A5A00812EE12FE058E0931502E12FE054E09354
:100A6A001602A4E1B0E05AD1B1D0B0D0AFD0A0E222
:100A7A009DDF84EF91E00197F1F7A8E2A7DFA4E0F8
:100A8A00A5DFA5E8A3DFA6E0A1DFBADF1981088107
:100A9A0023960895AA93E981EA93FE013196FA937F
:100AAA00EA93E1E0EA93E0E0F0E0FA93EA93A0E067
:100ABA0088DD22960895E0937C00E0917A000895FB
:100ACA00E0E0EA93EA9308956F2F660F660B762F9C
:100ADA000895A32DB42D8B2F880F880B982F089576
:100AEA008FDFE1E0EA93EA93EEE9F0E0FA93EA9322
:100AFA0080E0F5DC2496E4CFE8EAF0E0FA93EA93A2
:100B0A000895E0E4F2E46FE070E00895C4D001D102
:100B1A0084E0E5DC2896E0E0EA930895E4E0EA93CD
:100B2A00E0EBF0E0FA93EA930895FA93EA9380E00F
:100B3A00D6DC2496E0E0EA93EAE00895A32DB42DEA
:100B4A00E8EEF3E00895C0DFE4D084E0C8DC28963C
:100B5A00E0E0EA9308952A93AD85BE85EF85F8898A
:100B6A0009950895E889F9893497E88BF98B0895EE
:100B7A00AD85BE85EF85F88909950895A889B98953
:100B8A001496ED91FD91EE83FF83AE81BF810895A6
:100B9A00EE83FF836887798708951A931A2FE09165
:100BAA001702EA93E12F0895EA2BE0931802AE2F79
:100BBA0071CFE0931802AE2F6DCF1A930A931A2FB2
:100BCA000A81089503DFA3E0B0E0A8C0A0E3EEDE47
:100BDA0084EF91E00197F1F708955A934A933A9373
:100BEA002A931A930A9308955D814C813B812A8145
:100BFA00198108810895F195E195F0400895F095DD
:100C0A0060957095E195FF4F6F4F7F4F0895B095AE
:100C1A0080959095A195BF4F8F4F9F4F08950024BF
:100C2A00112490E1AA0FBB1F001C111C0E1A1F0AE7
:100C3A0018F40E0E1F1E01C0A1609A9599F7FD01C6
:100C4A00D001089548D0EBDF0EF4D5DF08953F9325
:100C5A004F935F9300241124A00130E2AA0FBB1F17
:100C6A00881F991F001C111C441F551F0E1A1F0AAA
:100C7A00460B570B28F40E0E1F1E461F571F01C0A6
:100C8A00A1603A9559F7FD01BC01D001CA015F91F3
:100C9A004F913F9108952DD0DADF0EF4B0DF089519
:100CAA00E894B7FF04C0B195A195B0406894F7FDE8
:100CBA00A2DFB5DFFD010EF49EDF0895E89497FFE9
:100CCA0002C0A5DF689477FD9ADFC1DFFD01BC0190
:100CDA000EF495DF0895E894F7FF02C08CDF68945C
:100CEA00B7FF06C0B195A195B04000F8039400FA89
:100CFA000895E89477FF02C082DF689497FF04C0E2
:100D0A0086DF00F8039400FA08950590F491E02D27
:100D1A0008957A936A93FA93EA930895109639F0AC
:100D2A00A89588E893E10197F1F71197C9F7089513
:00000001FF
