:0A0000000C9458000C9400000C94BE
:10000A0000000C9400000C9400000C9400000C9466
:10001A0000000C9400000C9400000C9400000C9456
:10002A0000000C9400000C9400000C9400000C9446
:10003A0000000C9400000C9400000C9400000C9436
:10004A0000000C9400000C9400000C9400000C9426
:10005A0000000C9400000C9400000C9400000C9416
:10006A0048010C9400000C9400000C9400000C94BD
:10007A0000001027E80364000A00010000100001D4
:10008A001000010048656C6C6F20776F726C640019
:10009A0025750000070080C0010002029E000200D0
:1000AA000F02A0000000F894EE27EFBBF1E0F5BFC5
:1000BA00E5BF8DE0A2E0BB27ED938A95E9F780E0E2
:1000CA0094E0A0E0B1E0ED930197E9F7E2EAF0E00D
:1000DA0085919591009761F0A591B591059015903C
:1000EA00BF01F00105900D920197E1F7FB01F0CFF6
:1000FA00E0E0EEBBEFEFEDBFE4E0EEBFC0E0D2E040
:10010A000C94870000E010E0A4E6B0E02BD07894CD
:10011A00E7E2EA93A0E19AD2E0E0EA93E1E0EA9327
:10012A00EEE8F0E0FA93EA9380E01AD42496E0E04D
:10013A00EA93EA93EAE9F0E0FA93EA93F8016F2F77
:10014A00660F660B762FA5D484E00AD42896F801A8
:10015A000F5F1F4FE170AE2F6ED2A8E8B3E19ED4B5
:10016A00E6CFFFCF6FD49D01F19AE7E0E093020258
:10017A00E0E0E0930B02E0930C02E0930D02E093BF
:10018A000E0241984098E093BC00E091B900EC7FE0
:10019A00E093B900F901A0EABFE064D41E2F183039
:1001AA0008F018501093B800E091BC00E078E564BC
:1001BA00E093BC004ED424960895249741D41A2F74
:1001CA002A853B850C854D855E85F19B58C0EF8558
:1001DA00EE0FE09303024093040250930502E0E01D
:1001EA00E09300020093060220930702309308026C
:1001FA00E093010210930902E6E0E0930202789488
:10020A00003069F0042E052AD1F1103021F00024C3
:10021A000216030609F001C032C0F09A0BC0103072
:10022A0031F1022E032A59F1E0910302E160E093D1
:10023A000302F098F198E091BC00EF70E06AE09355
:10024A00BC00E0E2F1EA67E070E0B8D3F1990FC0D0
:10025A00EE81FF8168857985319760407040AED321
:10026A0029F4E5E0E0930202F19A09C0EFCFA091E8
:10027A000202E0E0EA17E1E009F0EE2701C0E0E05F
:10028A00E6D3609608950A921A92FA926A937A933A
:10029A008A939A93AA93BA93EA93FA93EFB7EA9353
:1002AA005A934A933A932A931A930A931091010202
:1002BA00009100023091060220910202E12FA091E2
:1002CA000702B0910802F0E0EA0FFB1FAF01E091CC
:1002DA00B900E87FE83011F420E002C0E03119F4F7
:1002EA00E091030210C0E83111F0E83241F503173A
:1002FA0098F4E02F0F5FA0910402B0910502F0E09C
:10030A00AE0FBF1FEC91E093BB00E091BC00EF7011
:10031A00E068E093BC0012C0E09109021E1768F47D
:10032A00E0910302E160E0930302F098E091BC00DF
:10033A00EF70E06AE093BC000DC138C00BC1E03534
:10034A0031F4E091BB00DA01EC931F5F02C0E034A4
:10035A0089F4E0910902E1501E1728F0E091BC00EF
:10036A00EF70E06804C0E091BC00EF70E06CE093CD
:10037A00BC00F0C0E83531F4E091BB00DA01EC933F
:10038A001F5F02C0E03209F402C0E03309F402C080
:10039A00E83469F4203051F4F09B03C0031728F0C5
:1003AA0005C0E09109021E1708F424E0CCC0E83326
:1003BA0031F422E0E091BC00EF70E068C8C0E83692
:1003CA0011F0E83711F422E005C0E03611F0E03709
:1003DA00A1F420E010E0F098E0910A02E03031F454
:1003EA0021E0E091BC00EF70E06804C0E091BC003D
:1003FA00EF70E06CE093BC00ADC0E03811F0E0397A
:10040A0039F5F09B02C021E09EC0E091BB00DA0101
:10041A00EC931F5FE0910A021E17C0F4E0910B02F1
:10042A00F0910C02309711F426E08DC0A0E0E09123
:10043A000B02F0910C020995E03039F0E091BC0012
:10044A00EF70E06CE093BC0085C001C0F09A02C076
:10045A00E83809F402C0E83939F4E091BC00EF70D9
:10046A00E068E093BC0076C0E03AB1F4E091BC00E9
:10047A00EF70E06CE093BC00F19AE0910B02F0910E
:10048A000C02309739F0A1E0E0910B02F0910C02D6
:10049A00099501C026E05EC0E03B11F422E002C0EB
:1004AA00E83AB1F4E0910D02F0910E02309759F05A
:1004BA00A0E0E0910D02F0910E0209953E2FE03086
:1004CA0011F020E002C026E03EC000E0F09802C031
:1004DA00E83BF9F4F09B02C021E035C0E02F0F5F42
:1004EA00A0910402B0910502F0E0AE0FBF1FEC919B
:1004FA00E093BB00031728F4E091BC00EF70E06CB6
:10050A0005C0F09AE091BC00EF70E068E093BC008F
:10051A0021C0E03C11F0E83C99F4E091BC00EF7096
:10052A00E06CE093BC00E0910D02F0910E0230976E
:10053A0031F0A1E0E0910D02F0910E02099509C097
:10054A00E03041F423E0E091BC00EF70E06DE0930D
:10055A00BC00F19A10930102009300022093020258
:10056A00309306020991199129913991499159912A
:10057A00E991EFBFF991E991B991A991999189917D
:10058A0079916991F9901990099018951CD2A091C6
:10059A00140220D259C017D2E095A0911402EA237E
:1005AA001ED252C01A931A2FE0911302EA93E091D5
:1005BA001402EF70AE2FE12FE07F0CD2A4E0E6DF49
:1005CA00A4E0E9DF41C0AA93A881ECDFE881E295C3
:1005DA00E883A881E7DF85E88A95F1F721960895EF
:1005EA0002D2E12FF0E0E15FFD4FE081E00FAE2F94
:1005FA00EADF402E312E50C0A2E0FAD1ACE0E3DFB0
:10060A00A1E0F6D1E0E03E2E4E2E08951A931A2F5D
:10061A001A3011F0461438F0E0E0EA933394A32D2F
:10062A00DFDF1A3089F04394A1E0B0DFA12FCBDFDE
:10063A00A1E0B1DF09C01A931A2F103019F0A8E00F
:10064A00A5DF02C0A8E0A7DF19910895CCD10093D5
:10065A001302E0911302EA93E8E0C1D1612EE12F7F
:10066A00E058E0931102E12FE054E0931202A4E172
:10067A00B0E014D2C1D1C0D1BFD1A0E293DF88ECDF
:10068A0090E00197F1F7A8E29EDFA4E09CDFA5E8DD
:10069A009ADFA6E098DFB0DF1981088123960895D2
:1006AA00BA93AA93A991B991EE27FF276D91662370
:1006BA0011F03196FBCF0895BA93AA93AA27BB27C4
:1006CA00E991F9910590002011F01196FBCFFD01F7
:1006DA000895AA93E981EA93FE013196FA93EA937F
:1006EA00E1E0EA93E0E0F0E0FA93EA93A0E065DD66
:1006FA0022960895BA93AA932697A2D110E0AC85C0
:10070A00BD85E0E0F0E0ED93FC93EA89FB89319640
:10071A00EA8BFB8B3197E4912E2FE03009F40BC161
:10072A00E12FE03031F4253211F411E001C06BD130
:10073A0001C1E130A1F4253211F465D1FAC012E009
:10074A0040E000E02D3211F401E0F4C02B3211F444
:10075A004BE2F0C0203211F440E2ECC002C0E230B9
:10076A0039F450E013E0203311F40068E3C003C009
:10077A00E33009F0DFC0203310F02A3308F007C055
:10078A00AAE05A9F502DE22FE0535E0FD3C0E22F0A
:10079A00E33639F43FD1E889F989A481AA9340D193
:1007AA00C8C0E33729F436D141D17ADF1E2F07C0FA
:1007BA00E03749F42FD13AD17FDF1E2F086002605B
:1007CA000F7730E03AC0E43611F0E93611F40460EC
:1007DA0002C0E53731F4ECE7F0E0EE83FF8315E081
:1007EA000CC0E83511F4086003C0E83709F0A1C06D
:1007FA00E6E8F0E0EE83FF8314E002FF15C00AD1B9
:10080A00A889B9891496ED91FD91EA87FB87AB8592
:10081A00AA2322F423D1EA87FB874DE2403011F064
:10082A001F5F01C00B7F09C0F5D0A889B98914964A
:10083A00ED91FC911197EA87FB8700FD10C015170F
:10084A0070F407FF08C002FF04C00B7F242F115069
:10085A0001C020E301C020E2D6D05150F0CF312FA1
:10086A0001FF16C0303099F003FF06C0EE81FF8108
:10087A002591EE83FF8305C0AE81BF812D91AE83A2
:10088A00BF83C1D0503009F051503150EBCF48C02E
:10089A0020E3EE81FF81F9D0E887F987EE81FF81B5
:1008AA003296EE83FF83E885F985AA85BB85AE1764
:1008BA00BF0750F02F5FA885B985EA85FB85EA1B3B
:1008CA00FB0BEA87FB87EFCF2A3328F003FF02C02E
:1008DA00295F01C0295D04FD19C0213320F4A885D0
:1008EA00B985119709F409C0531710F000FF01C028
:1008FA0011C020E207FF0AC020E3006102FF06C020
:10090A000B7F4A938DD0503009F051507CD0503033
:10091A0009F051503150A885B985129708F0B8CF1F
:10092A0000FF07C0503029F05150E0E2EA9378D036
:10093A00F9CF10E0EACEAC85BD85ED91FD9187D067
:10094A00649608957FD08D013C81A32F5FDED80184
:10095A00ED91FD913196FE93EE937BD02596089505
:10096A00FF92F82E26976ED0FE010024EF0DF01D9F
:10097A0034852585DE0116960024AF0DB01D8D0144
:10098A00E0E0EE83EF83E887E9872A93A32F28DE46
:10099A00DE011A960024AF0DB01DED91FD91FA9378
:1009AA00EA931A930A93E7EAF4E0FA93EA93DE01E8
:1009BA001A96A0DE4ED02A96FF900895EE83FF8302
:1009CA006887798708951A931A2FE0911302EA9398
:1009DA00E12F0895EA2BE0931402AE2F7ACEE0932A
:1009EA001402AE2F76CE1A930A931A2F0A8108950B
:1009FA00EADDA3E0B0E052C0A0E3D4DD88EC90E0E9
:100A0A000197F1F708952A93AD85BE85EF85F88998
:100A1A0009950895E889F9893497E88BF98B08953F
:100A2A00AD85BE85EF85F88909950895A889B989A4
:100A3A001496ED91FD91EE83FF83AE81BF810895F7
:100A4A005A934A933A932A931A930A9308955D8183
:100A5A004C813B812A81198108810895F195E1959C
:100A6A00F04008950024112490E1AA0FBB1F001C36
:100A7A00111C0E1A1F0A18F40E0E1F1E01C0A160C7
:100A8A009A9599F7FD01D00108950590F491E02D0A
:100A9A0008957A936A93FA93EA930895109639F02F
:100AAA00A89580ED97E00197F1F71197C9F7089596
:00000001FF
